{
  "_format": "hh-sol-artifact-1",
  "contractName": "Transactions",
  "sourceName": "contracts/Transcations.sol",
  "abi": [
    {
      "inputs": [],
      "stateMutability": "nonpayable",
      "type": "constructor"
    },
    {
      "anonymous": false,
      "inputs": [
        {
          "indexed": false,
          "internalType": "address",
          "name": "from",
          "type": "address"
        },
        {
          "indexed": false,
          "internalType": "address",
          "name": "receiver",
          "type": "address"
        },
        {
          "indexed": false,
          "internalType": "uint256",
          "name": "amount",
          "type": "uint256"
        },
        {
          "indexed": false,
          "internalType": "string",
          "name": "message",
          "type": "string"
        },
        {
          "indexed": false,
          "internalType": "uint256",
          "name": "timestamp",
          "type": "uint256"
        },
        {
          "indexed": false,
          "internalType": "string",
          "name": "keyword",
          "type": "string"
        }
      ],
      "name": "Transfer",
      "type": "event"
    },
    {
      "inputs": [
        {
          "internalType": "address payable",
          "name": "receiver",
          "type": "address"
        },
        {
          "internalType": "uint256",
          "name": "amount",
          "type": "uint256"
        },
        {
          "internalType": "string",
          "name": "message",
          "type": "string"
        },
        {
          "internalType": "string",
          "name": "keyword",
          "type": "string"
        }
      ],
      "name": "addTransaction",
      "outputs": [],
      "stateMutability": "nonpayable",
      "type": "function"
    },
    {
      "inputs": [],
      "name": "getCount",
      "outputs": [
        {
          "internalType": "uint256",
          "name": "",
          "type": "uint256"
        }
      ],
      "stateMutability": "view",
      "type": "function"
    },
    {
      "inputs": [],
      "name": "getTransaction",
      "outputs": [
        {
          "components": [
            {
              "internalType": "address",
              "name": "sender",
              "type": "address"
            },
            {
              "internalType": "address",
              "name": "receiver",
              "type": "address"
            },
            {
              "internalType": "uint256",
              "name": "amount",
              "type": "uint256"
            },
            {
              "internalType": "string",
              "name": "message",
              "type": "string"
            },
            {
              "internalType": "uint256",
              "name": "timestamp",
              "type": "uint256"
            },
            {
              "internalType": "string",
              "name": "keyword",
              "type": "string"
            }
          ],
          "internalType": "struct Transactions.TransferStruct[]",
          "name": "",
          "type": "tuple[]"
        }
      ],
      "stateMutability": "view",
      "type": "function"
    },
    {
      "inputs": [],
      "name": "owner",
      "outputs": [
        {
          "internalType": "address",
          "name": "",
          "type": "address"
        }
      ],
      "stateMutability": "view",
      "type": "function"
    },
    {
      "inputs": [],
      "name": "transactionsCount",
      "outputs": [
        {
          "internalType": "uint256",
          "name": "",
          "type": "uint256"
        }
      ],
      "stateMutability": "view",
      "type": "function"
    }
  ],
  "bytecode": "0x608060405234801561001057600080fd5b50336000806101000a81548173ffffffffffffffffffffffffffffffffffffffff021916908373ffffffffffffffffffffffffffffffffffffffff160217905550610ccb806100606000396000f3fe608060405234801561001057600080fd5b50600436106100575760003560e01c806359705f811461005c5780636d1b6bb11461007a5780638da5cb5b14610096578063a87d942c146100b4578063fd99a746146100d2575b600080fd5b6100646100f0565b6040516100719190610951565b60405180910390f35b610094600480360381019061008f919061065e565b610333565b005b61009e6104f5565b6040516100ab91906108c7565b60405180910390f35b6100bc610519565b6040516100c99190610973565b60405180910390f35b6100da610523565b6040516100e79190610973565b60405180910390f35b60606002805480602002602001604051908101604052809291908181526020016000905b8282101561032a57838290600052602060002090600602016040518060c00160405290816000820160009054906101000a900473ffffffffffffffffffffffffffffffffffffffff1673ffffffffffffffffffffffffffffffffffffffff1673ffffffffffffffffffffffffffffffffffffffff1681526020016001820160009054906101000a900473ffffffffffffffffffffffffffffffffffffffff1673ffffffffffffffffffffffffffffffffffffffff1673ffffffffffffffffffffffffffffffffffffffff168152602001600282015481526020016003820180546101fd90610b66565b80601f016020809104026020016040519081016040528092919081815260200182805461022990610b66565b80156102765780601f1061024b57610100808354040283529160200191610276565b820191906000526020600020905b81548152906001019060200180831161025957829003601f168201915b505050505081526020016004820154815260200160058201805461029990610b66565b80601f01602080910402602001604051908101604052809291908181526020018280546102c590610b66565b80156103125780601f106102e757610100808354040283529160200191610312565b820191906000526020600020905b8154815290600101906020018083116102f557829003601f168201915b50505050508152505081526020019060010190610114565b50505050905090565b60018060008282546103459190610a4a565b9250508190555060026040518060c001604052803373ffffffffffffffffffffffffffffffffffffffff1681526020018673ffffffffffffffffffffffffffffffffffffffff16815260200185815260200184815260200142815260200183815250908060018154018082558091505060019003906000526020600020906006020160009091909190915060008201518160000160006101000a81548173ffffffffffffffffffffffffffffffffffffffff021916908373ffffffffffffffffffffffffffffffffffffffff16021790555060208201518160010160006101000a81548173ffffffffffffffffffffffffffffffffffffffff021916908373ffffffffffffffffffffffffffffffffffffffff160217905550604082015181600201556060820151816003019080519060200190610484929190610529565b506080820151816004015560a08201518160050190805190602001906104ab929190610529565b5050507f416cfa4330a4565f45c2fd2dd4826a83a37443aba2ce6f79477c7355afac35fa3385858542866040516104e7969594939291906108e2565b60405180910390a150505050565b60008054906101000a900473ffffffffffffffffffffffffffffffffffffffff1681565b6000600154905090565b60015481565b82805461053590610b66565b90600052602060002090601f016020900481019282610557576000855561059e565b82601f1061057057805160ff191683800117855561059e565b8280016001018555821561059e579182015b8281111561059d578251825591602001919060010190610582565b5b5090506105ab91906105af565b5090565b5b808211156105c85760008160009055506001016105b0565b5090565b60006105df6105da846109b3565b61098e565b9050828152602081018484840111156105f757600080fd5b610602848285610b24565b509392505050565b60008135905061061981610c67565b92915050565b600082601f83011261063057600080fd5b81356106408482602086016105cc565b91505092915050565b60008135905061065881610c7e565b92915050565b6000806000806080858703121561067457600080fd5b60006106828782880161060a565b945050602061069387828801610649565b935050604085013567ffffffffffffffff8111156106b057600080fd5b6106bc8782880161061f565b925050606085013567ffffffffffffffff8111156106d957600080fd5b6106e58782880161061f565b91505092959194509250565b60006106fd8383610819565b905092915050565b61070e81610aee565b82525050565b61071d81610aa0565b82525050565b61072c81610aa0565b82525050565b600061073d826109f4565b6107478185610a17565b935083602082028501610759856109e4565b8060005b85811015610795578484038952815161077685826106f1565b945061078183610a0a565b925060208a0199505060018101905061075d565b50829750879550505050505092915050565b60006107b2826109ff565b6107bc8185610a28565b93506107cc818560208601610b33565b6107d581610c56565b840191505092915050565b60006107eb826109ff565b6107f58185610a39565b9350610805818560208601610b33565b61080e81610c56565b840191505092915050565b600060c0830160008301516108316000860182610714565b5060208301516108446020860182610714565b50604083015161085760408601826108a9565b506060830151848203606086015261086f82826107a7565b915050608083015161088460808601826108a9565b5060a083015184820360a086015261089c82826107a7565b9150508091505092915050565b6108b281610ae4565b82525050565b6108c181610ae4565b82525050565b60006020820190506108dc6000830184610723565b92915050565b600060c0820190506108f76000830189610723565b6109046020830188610705565b61091160408301876108b8565b818103606083015261092381866107e0565b905061093260808301856108b8565b81810360a083015261094481846107e0565b9050979650505050505050565b6000602082019050818103600083015261096b8184610732565b905092915050565b600060208201905061098860008301846108b8565b92915050565b60006109986109a9565b90506109a48282610b98565b919050565b6000604051905090565b600067ffffffffffffffff8211156109ce576109cd610c27565b5b6109d782610c56565b9050602081019050919050565b6000819050602082019050919050565b600081519050919050565b600081519050919050565b6000602082019050919050565b600082825260208201905092915050565b600082825260208201905092915050565b600082825260208201905092915050565b6000610a5582610ae4565b9150610a6083610ae4565b9250827fffffffffffffffffffffffffffffffffffffffffffffffffffffffffffffffff03821115610a9557610a94610bc9565b5b828201905092915050565b6000610aab82610ac4565b9050919050565b6000610abd82610ac4565b9050919050565b600073ffffffffffffffffffffffffffffffffffffffff82169050919050565b6000819050919050565b6000610af982610b00565b9050919050565b6000610b0b82610b12565b9050919050565b6000610b1d82610ac4565b9050919050565b82818337600083830152505050565b60005b83811015610b51578082015181840152602081019050610b36565b83811115610b60576000848401525b50505050565b60006002820490506001821680610b7e57607f821691505b60208210811415610b9257610b91610bf8565b5b50919050565b610ba182610c56565b810181811067ffffffffffffffff82111715610bc057610bbf610c27565b5b80604052505050565b7f4e487b7100000000000000000000000000000000000000000000000000000000600052601160045260246000fd5b7f4e487b7100000000000000000000000000000000000000000000000000000000600052602260045260246000fd5b7f4e487b7100000000000000000000000000000000000000000000000000000000600052604160045260246000fd5b6000601f19601f8301169050919050565b610c7081610ab2565b8114610c7b57600080fd5b50565b610c8781610ae4565b8114610c9257600080fd5b5056fea2646970667358221220608f2b905417ab95ec854a9aa9955d6bcd65b98eab9cad3a6f6b07909c66aa5164736f6c63430008040033",
  "linkReferences": {},
  "deployedLinkReferences": {}
}